:100000000C9477000C945F020C9438020C949F00BF
:100010000C949F000C949F000C949F000C949F00E4
:100020000C949F000C949F000C949F000C94BD03B3
:100030000C949F000C949F000C949F000C949F00C4
:100040000C94ED0B0C949F000C94AC020C94860263
:100050000C949F000C949F000C949F000C949F00A4
:100060000C949F000C949F00072C7AA5BA6CC59045
:10007000DA3B9365FC8BBC53F810FD3C5692834DE4
:10008000BD879D3AB63DCBC9BF5BBE73DA0FC93F92
:1000900000000000240027002A00000000002500C6
:1000A00028002B0000000000230026002900040483
:1000B0000404040404040202020202020303030310
:1000C00003030102040810204080010204081020EC
:1000D00001020408102000000008000201000003D3
:1000E0000407000000000000000041163B16112428
:1000F0001FBECFEFD8E0DEBFCDBF12E0A0E0B1E081
:10010000EAE7F9E302C005900D92AC34B107D9F7E4
:1001100023E0ACE4B2E001C01D92A83FB207E1F7D2
:1001200010E0C6E7D0E004C02197FE010E94A51AA6
:10013000C537D107C9F70E94370C0C94B01C0C943A
:1001400000000895CF92DF92EF92FF920F931F93DA
:10015000CF93DF936C017A018B01C0E0D0E0CE1524
:10016000DF0581F0D8016D918D01D601ED91FC91F3
:100170000190F081E02DC6010995892B11F021969F
:10018000EECF7E01C701DF91CF911F910F91FF90BC
:10019000EF90DF90CF900895089580E090E008956B
:1001A000FC01538D448D252F30E0842F90E0821B7D
:1001B000930B541710F0CF96089501970895FC0102
:1001C000918D828D981761F0828DDF01A80FB11D8E
:1001D0005D968C91928D9F5F9F73928F90E00895B2
:1001E0008FEF9FEF0895FC01918D828D981731F06C
:1001F000828DE80FF11D858D90E008958FEF9FEFC0
:100200000895FC01918D228D892F90E0805C9F4F95
:10021000821B91098F739927089581E493E00E94CE
:10022000010121E0892B09F420E0822F0895FC01CF
:10023000848DDF01A80FB11DA35ABF4F2C91848D6F
:1002400090E001968F739927848FA689B7892C93A4
:10025000A089B1898C91837080648C93938D848DF7
:10026000981306C00288F389E02D80818F7D8083FA
:100270000895EF92FF920F931F93CF93DF93EC01BA
:1002800081E0888F9B8D8C8D981305C0E889F98952
:10029000808185FD26C0F62E0B8D10E00F5F1F4F6D
:1002A0000F731127E02E8C8DE8120CC00FB607FCDF
:1002B000FACFE889F989808185FFF5CFCE010E94C8
:1002C0001701F1CF8B8DFE01E80FF11DE35AFF4FAF
:1002D000F0829FB7F8940B8FEA89FB898081806256
:1002E0000AC09FB7F894EE89FF896083E889F9898D
:1002F00080818370806480839FBF81E090E0DF9184
:10030000CF911F910F91FF90EF900895CF93DF93BE
:10031000EC01888D8823C9F0EA89FB89808185FDFD
:1003200005C0A889B9898C9186FD0FC00FB607FC5E
:10033000F5CF808185FFF2CFA889B9898C9185FF9F
:10034000EDCFCE010E941701E7CFDF91CF91089545
:1003500080E090E0892B29F00E940D0181110C941E
:100360000000089581E08093DC0208950E94921CB1
:10037000FF920F931F93CF93DF93EC01F62E08812A
:100380001981C8010E941718F81621F06F2DC801B5
:100390000E941F18CE01DF91CF911F910F91FF9006
:1003A00008950F931F93CF93DF93EC018881998178
:1003B000009729F02A813B812617370788F48B01A3
:1003C0006F5F7F4F0E94CC1B009761F099838883F9
:1003D0001B830A832C813D81232B11F4FC011082A5
:1003E00081E001C080E0DF91CF911F910F910895CE
:1003F000EF92FF920F931F93CF93DF93EC017B015A
:100400008A01BA010E94D1012881398181110DC070
:100410002115310519F0C9010E94431B1982188268
:100420001D821C821B821A8206C01D830C83B701A9
:10043000C9010E94A91CCE01DF91CF911F910F919C
:10044000FF90EF900895FC011182108213821282B6
:10045000158214826115710551F0FB010190002095
:10046000E9F73197AF01461B570B0C94F80108953B
:100470001F920F920FB60F9211242F933F934F9319
:100480005F936F937F938F939F93AF93BF93EF93FC
:10049000FF93E0910E01F0910F010995FF91EF910B
:1004A000BF91AF919F918F917F916F915F914F918C
:1004B0003F912F910F900FBE0F901F9018951F9294
:1004C0000F920FB60F9211242F933F934F935F9388
:1004D0006F937F938F939F93AF93BF93EF93FF930C
:1004E000E0910C01F0910D010995FF91EF91BF9101
:1004F000AF919F918F917F916F915F914F913F91BC
:100500002F910F900FBE0F901F9018951F920F9272
:100510000FB60F9211242F933F934F935F936F93D6
:100520007F938F939F93AF93BF93EF93FF9381E458
:1005300093E00E941701FF91EF91BF91AF919F91BE
:100540008F917F916F915F914F913F912F910F907C
:100550000FBE0F901F9018951F920F920FB60F921B
:1005600011242F938F939F93EF93FF93E091510367
:10057000F09152038081E0915703F091580382FD7E
:1005800012C0908180915A038F5F8F7320915B031B
:10059000821751F0E0915A03F0E0EF5BFC4F958F2A
:1005A00080935A0301C08081FF91EF919F918F91B9
:1005B0002F910F900FBE0F901F901895CF92DF9242
:1005C000EF92FF92CF93DF93EC01603282E07807E5
:1005D0000CF03DC077FD06C0653B71052CF064EB67
:1005E00070E002C060E070E0898128E830E06901D5
:1005F000C81AD10887FDD394CC0CDD1CCC0CDD1CB3
:100600000D2C000CEE08FF088A8128E532E0281B3B
:10061000310987FD3395220F331F220F331FC90184
:10062000330FAA0BBB0B9C01AD012C193D094E09E0
:100630005F09DB010E94571824EB30E040E050E0F6
:100640000E942D18C20ED31EE41EF51EB60138817D
:100650003C3080F5298188E890E0821B910927FDD4
:100660009395880F991F880F991F6817790784F051
:100670008A8148E552E0481B510987FD5395440F94
:10068000551F440F551FCB01461757070CF4CA01DD
:100690000297880F991F4FB7F894232F30E0F90184
:1006A000EE0FFF1F2E0F3F1FF901E75EFC4F9283F5
:1006B00081834FBFDF91CF91FF90EF90DF90CF907C
:1006C00008951F93CF93DF93EC01162F88818C3010
:1006D00008F04EC061E0812F0E94770B8881E82FDF
:1006E000F0E09F01220F331FE20FF31FE75EFC4F84
:1006F0001F739081907C192B108319821A826CE0F1
:100700000E94991A9CE0899FB001112440E050E0BA
:100710009B01240F351FF901EE0FFF1F2E0F3F1F06
:10072000F901E75EFC4F908196FD16C04F5F5F4F69
:100730004C30510569F781110FC01092800082E0A2
:10074000809381001092850010928400B19A80916C
:100750006F00826080936F00E881F0E0CF01880F26
:10076000991FE80FF91FE75EFC4F8081806480834A
:100770008881DF91CF911F9108951F920F920FB63C
:100780000F9211242F933F934F935F936F937F9317
:100790008F939F93AF93BF93EF93FF938091170332
:1007A00087FF05C010928500109284001BC0209125
:1007B0001703022E000C330B8091180390E02817CA
:1007C000390784F480911703082E000C990BFC0163
:1007D000EE0FFF1F8E0F9F1FFC01E75EFC4F808115
:1007E00086FD15C0809117038F5F809317032091BA
:1007F0001703022E000C330B8091180390E028178A
:100800003907C4F4809117038C3064F113C08091D0
:100810001703082E000C990BFC01EE0FFF1F8E0F23
:100820009F1FFC01E75EFC4F808160E08F730E9498
:10083000480BD8CF80918400909185000496803435
:100840009C4918F480E49CE905C080918400909153
:100850008500049690938900809388008FEF8093A1
:1008600017033BC0209184003091850080911703CD
:10087000082E000C990BFC01EE0FFF1F8E0F9F1F1F
:10088000FC01E75EFC4F81819281820F931F909360
:1008900089008093880080911703082E000C990B23
:1008A000FC01EE0FFF1F8E0F9F1FFC01E75EFC4F48
:1008B000808186FF12C080911703082E000C990BCF
:1008C000FC01EE0FFF1F8E0F9F1FFC01E75EFC4F28
:1008D000808161E08F730E94480BFF91EF91BF917F
:1008E000AF919F918F917F916F915F914F913F91C8
:1008F0002F910F900FBE0F901F9018954F925F92FF
:100900006F927F928F929F92AF92BF92CF92DF921F
:10091000EF92FF92CF93DF9300D000D0CDB7DEB738
:100920007C01109260021092610210926202109299
:10093000630210925C0210925D0210925E021092AD
:100940005F02109258021092590210925A021092AD
:100950005B0260E08EE00E94480B64E170E080E0A2
:1009600090E00E94B30BC12CD12CCE14DF0404F50F
:100970000E94780ABC01990F880B990B0E94F71608
:100980009B01AC01609160027091610280916202F2
:10099000909163020E94D918609360027093610283
:1009A00080936202909363028FEFC81AD80ADDCF5A
:1009B000B7010F2C000C880B990B0E94F7164B0106
:1009C0005C019B01AC0160916002709161028091B9
:1009D0006202909163020E944519609360027093D5
:1009E0006102809362029093630261E08EE00E9454
:1009F000480B64E170E080E090E00E94B30B60E09F
:100A00008FE00E94480B64E170E080E090E00E947B
:100A1000B30BC12CD12CCE14DF0404F50E94780A4C
:100A2000BC01990F880B990B0E94F7169B01AC0132
:100A300060915C0270915D0280915E0290915F0214
:100A40000E94D91860935C0270935D0280935E02ED
:100A500090935F028FEFC81AD80ADDCFA5019401E9
:100A600060915C0270915D0280915E0290915F02E4
:100A70000E94451960935C0270935D0280935E0250
:100A800090935F0261E08FE00E94480B64E170E0A8
:100A900080E090E00E94B30B60E080E10E94480B90
:100AA00064E170E080E090E00E94B30BC12CD12C97
:100AB000CE14DF0404F50E94780ABC01990F880B5C
:100AC000990B0E94F7169B01AC016091580270913E
:100AD000590280915A0290915B020E94D91860934A
:100AE00058027093590280935A0290935B028FEFE1
:100AF000C81AD80ADDCFA5019401609158027091FF
:100B0000590280915A0290915B020E9445196093AC
:100B100058027093590280935A0290935B0261E0ED
:100B200080E10E94480B2091080130910901409119
:100B30000A0150910B0160E070EC8FE794E40E9491
:100B4000D8180E94B7194B015C0160916002709146
:100B5000610280916202909163020E94B7199B0129
:100B6000AC01281939094A095B09A1E0BCEF0E94D0
:100B70005A186B017C01209154023091550240912A
:100B800056025091570260E070EC8FE794E40E94A7
:100B9000D8180E94B7199B01AC01281939094A09D4
:100BA0005B09C701B6010E942D1821308CEF380770
:100BB0008FEF4807580784F012161306140615061F
:100BC0007CF0CA01B90161507C4F8F4F9F4F0E944A
:100BD000F7164B015C010BC0812C912C540107C00E
:100BE000812C20EC922E2FE7A22E24E4B22E8092AC
:100BF000600290926102A0926202B0926302209120
:100C0000040130910501409106015091070160E017
:100C100070EC8FE794E40E94D8180E94B7192B015A
:100C20003C0160915C0270915D0280915E02909146
:100C30005F020E94B7199B01AC01241935094609CE
:100C40005709A1E0BCEF0E945A186B017C0120916A
:100C5000500230915102409152025091530260E093
:100C600070EC8FE794E40E94D8180E94B7199B019A
:100C7000AC012419350946095709C701B6010E947C
:100C80002D1821308CEF38078FEF4807580784F074
:100C900012161306140615067CF0CA01B90161503C
:100CA0007C4F8F4F9F4F0E94F7166B017C010BC04A
:100CB000C12CD12C760107C0C12C90ECD92E9FE716
:100CC000E92E94E4F92EC0925C02D0925D02E0928B
:100CD0005E02F0925F02209100013091010140918B
:100CE00002015091030160E070EC8FE794E40E94F0
:100CF000D8180E94B7192B013C01609158027091DD
:100D0000590280915A0290915B020E94B7199B018F
:100D1000AC012419350946095709A1E0BCEF0E942E
:100D20005A1869837A838B839C8320914C0230917B
:100D30004D0240914E0250914F0260E070EC8FE7FF
:100D400094E40E94D8180E94B7199B01AC012419A1
:100D500035094609570969817A818B819C810E94F6
:100D60002D1821308CEF38078FEF4807580784F093
:100D700012161306140615067CF0CA01B90161505B
:100D80007C4F8F4F9F4F0E94F7162B013C010BC0E9
:100D9000412C512C320107C0412C80EC582E8FE79A
:100DA000682E84E4782E4092580250925902609244
:100DB0005A0270925B02A5019401C501B4010E9420
:100DC00056174B015C01A7019601C701B6010E94AD
:100DD00056179B01AC01C501B4010E94D9186B01E3
:100DE0007C01A3019201C301B2010E9456179B012D
:100DF000AC01C701B6010E94D9180E943F1A6B01CD
:100E00007C0120E030E0A9010E94341A20E030E0AB
:100E100040E05FE387FD05C0C701B6010E94D91815
:100E200004C0C701B6010E94D8180E94B719CB01AF
:100E30000F900F900F900F90DF91CF91FF90EF9058
:100E4000DF90CF90BF90AF909F908F907F906F90EA
:100E50005F904F900895AF92BF92CF92DF92EF9242
:100E6000FF920F931F93CF93DF9300D0CDB7DEB7E0
:100E700004E612E092E3E92EF12C68018CE0C80E42
:100E8000D11C5701A01AB10AC501800F911FF801AA
:100E900061918F019A838983CE0101960E94B801E6
:100EA0000C151D0589F7FCE0EF0EF11C8AEAE81627
:100EB000F10419F78DEDE82E82E0F82E0AEA10E031
:100EC000F70161917F011A830983CE0101960E9487
:100ED000B8010F5F1F4F063C110591F7609110019B
:100EE0001A830983CE0101960E94B8016091110115
:100EF00087EC90E09A838983CE0101960E94B80125
:100F00000F900F90DF91CF911F910F91FF90EF9075
:100F1000DF90CF90BF90AF9008954F925F926F9205
:100F20007F928F929F92AF92BF92CF92DF92EF9279
:100F3000FF920F931F93CF93DF93CDB7DEB76497E4
:100F40000FB6F894DEBF0FBECDBF4B015C01298701
:100F50003A874B875C87ED86FE860F87188B9B014F
:100F6000AC010E9456176B017C0129853A854B859F
:100F70005C85CA01B9010E9456179B01AC01C701EB
:100F8000B6010E94D9186B017C012D853E854F85E5
:100F90005889CA01B9010E9456179B01AC01C701CB
:100FA000B6010E94D9180E943F1A698B7A8B8B8BED
:100FB0009C8B8091580290915902A0915A02B09155
:100FC0005B0289839A83AB83BC8380915C0290919E
:100FD0005D02A0915E02B0915F028D839E83AF831C
:100FE000B887C0906002D0906102E0906202F090F9
:100FF0006302A7019601C701B6010E9456172B0193
:101000003C012D813E814F815885CA01B9010E9462
:1010100056179B01AC01C301B2010E94D9182B01E4
:101020003C0129813A814B815C81CA01B9010E944E
:1010300056179B01AC01C301B2010E94D9180E944E
:101040003F1A29893A894B895C890E9456172B01DE
:101050003C0120E030E0A9010E94F016882309F449
:1010600046C0A7019601C501B4010E9456176B0145
:101070007C012D813E814F81588569857A858B85DC
:101080009C850E9456179B01AC01C701B6010E94C6
:10109000D9186B017C0129813A814B815C816D8576
:1010A0007E858F8598890E9456179B01AC01C701E8
:1010B000B6010E94D918A30192010E9445196496B5
:1010C0000FB6F894DEBF0FBECDBFDF91CF911F9159
:1010D0000F91FF90EF90DF90CF90BF90AF909F90D7
:1010E0008F907F906F905F904F900C94C71863EC37
:1010F00075EF88E490E464960FB6F894DEBF0FBEF7
:10110000CDBFDF91CF911F910F91FF90EF90DF90B6
:10111000CF90BF90AF909F908F907F906F905F9097
:101120004F90089585E392E00E94440A6091600226
:1011300070916102809162029091630242E00E948C
:1011400072098FE292E00E94440A60915C02709101
:101150005D0280915E0290915F0242E00E947209FE
:101160008FE292E00E94440A609158027091590205
:1011700080915A0290915B0242E00E9472098DECCC
:1011800091E00C946409833081F028F4813099F067
:101190008230A1F008958730A9F08830B9F084300A
:1011A000D1F4809180008F7D03C0809180008F7783
:1011B00080938000089584B58F7702C084B58F7DB9
:1011C00084BD08958091B0008F7703C08091B000F6
:1011D0008F7D8093B00008953FB7F8948091EE031F
:1011E0009091EF03A091F003B091F10326B5A89B75
:1011F00005C02F3F19F00196A11DB11D3FBFBA2FA9
:10120000A92F982F8827820F911DA11DB11DBC0108
:10121000CD0142E0660F771F881F991F4A95D1F7CD
:101220000895009769F0FC0101900020E9F73197DB
:10123000AF01481B590BBC0181E493E00C94A20060
:1012400080E090E008958F929F92AF92BF920F93AB
:101250001F93CF93DF93CDB7DEB7A1970FB6F89466
:10126000DEBF0FBECDBF19A2423008F44AE08E01A6
:101270000F5D1F4F842E912CA12CB12CA501940140
:101280000E949618E62FB901CA0101501109EA30EF
:1012900014F4E05D01C0E95CD801EC93232B242B0E
:1012A000252B61F7C8010E941109A1960FB6F89489
:1012B000DEBF0FBECDBFDF91CF911F910F91BF90C9
:1012C000AF909F908F900895CF93DF930E94110964
:1012D000EC018DE392E00E9411098C0F9D1FDF91BC
:1012E000CF9108958F929F92AF92BF92CF92DF924B
:1012F000EF92FF920F931F93CF93DF936B017C01CB
:10130000142F9B01AC010E947F1A882319F080E4FE
:1013100092E027C046015701E894B7F82FEF3FEF5E
:101320004FE75FE7C501B4010E947F1A81110DC02C
:101330002FEF3FEF4FE75FE7C501B4010E94F016C2
:1013400018161CF484E492E00CC02FEF3FEF4FE737
:101350005FE4C701B6010E94341A181684F488E4C9
:1013600092E0DF91CF911F910F91FF90EF90DF906E
:10137000CF90BF90AF909F908F900C9411092FEF5A
:101380003FEF4FE75FECC701B6010E94F01687FD03
:10139000E6CF20E030E0A901C701B6010E94F016B7
:1013A00087FF0BC06DE281E493E00E943901EC01FC
:1013B000F7FAF094F7F8F09402C0C0E0D0E000E053
:1013C00060E070E080E09FE3101741F020E030E043
:1013D00040E251E40E9445190F5FF6CFA701960144
:1013E0000E94D9186B017C010E94BE194B015C015F
:1013F0004AE00E942309C80FD91F1123B9F1C50182
:10140000B4010E94F5169B01AC01C701B6010E9410
:10141000D8186B017C016EE281E493E00E943901EF
:10142000C80FD91F20E030E040E251E4C701B60107
:101430000E9456174B015C010E94BE196B01E12C02
:10144000F12C4AE0C701B6010E942309C80FD91F39
:10145000C701B6010E94F5169B01AC01C501B4019C
:101460000E94D8186B017C011150E1F6CE01DF918A
:10147000CF911F910F91FF90EF90DF90CF90BF9091
:10148000AF909F908F9008950C941109CF92DF92A6
:10149000EF92FF92CF93DF9397FF1BC06B017C010C
:1014A0006DE281E493E00E943901EC016627772721
:1014B000CB016C197D098E099F094AE00E9423091E
:1014C0008C0F9D1FDF91CF91FF90EF90DF90CF9019
:1014D00008954AE0DF91CF91FF90EF90DF90CF9099
:1014E0000C942309BC01990F880B990B0C94460AA4
:1014F00087E480937C0080917A00806480937A00F6
:1015000080917A0086FDFCCF80917800209179004F
:1015100090E0922B0895CF93DF9342E00E947209EE
:10152000EC018DE392E00E9411098C0F9D1FDF9169
:10153000CF910895AF92BF92CF92DF92EF92FF9238
:101540000F931F93CF93DF93DC01CD90DC90119725
:10155000C114D10409F443C01496CD91DC911597C0
:101560002097E9F18C0176015701BFEFAB1ABB0A56
:10157000F7018081082E000C990B0E94E716892B39
:1015800011F07501F1CF2197CC0DDD1D8881082E5A
:10159000000C990B0E94E716892B29F0CE15DF0568
:1015A00010F02197F3CFAE014F5F5F4F4E195F09E7
:1015B000D80115965C934E931497CE14DF0420F453
:1015C000B701C6010E94971CD801ED91FC911197BB
:1015D00014968D919C911597E80FF91F1082DF9159
:1015E000CF911F910F91FF90EF90DF90CF90BF9020
:1015F000AF900895FC0124813581232B31F421E043
:1016000061157105A1F0FB0108C0FC018081918189
:101610006115710531F421E0FC018081882339F0E6
:1016200005C00E94A01C21E0892B09F020E0822F38
:101630000895FC0180819181009711F00C947F1630
:1016400060E070E0CB010895CF93DF93E8EDF0E028
:101650008491E4ECF0E0D491E0EBF0E0C491CC2391
:1016600091F081110E94C308EC2FF0E0EE0FFF1FF4
:10167000EC55FF4FA591B491EC91ED2381E090E002
:1016800021F480E002C080E090E0DF91CF910895E6
:101690001F93CF93DF93282F30E0F901EA52FF4FD9
:1016A0008491F901EE53FF4FD491F901E255FF4FB8
:1016B000C491CC23C1F0162F81110E94C308EC2FD6
:1016C000F0E0EE0FFF1FE656FF4FA591B4919FB7D4
:1016D000F894111104C08C91D095D82302C0EC91DC
:1016E000DE2BDC939FBFDF91CF911F910895CF93A5
:1016F000DF9390E0FC01EE53FF4F2491FC01E25593
:10170000FF4F8491882361F190E0880F991FFC01BD
:10171000E057FF4FC591D491FC01E656FF4FA591CC
:10172000B491611109C09FB7F894888120958223F4
:101730008883EC912E230BC0623061F49FB7F8943C
:101740008881322F309583238883EC912E2B2C9324
:101750009FBF06C08FB7F894E8812E2B28838FBFD8
:10176000DF91CF9108958F929F92AF92BF92CF92C7
:10177000DF92EF92FF926B017C010E94EC084B011B
:101780005C01C114D104E104F104F1F00E94EC0801
:10179000DC01CB0188199909AA09BB09883E93404D
:1017A000A105B10570F321E0C21AD108E108F108E2
:1017B00088EE880E83E0981EA11CB11CC114D104D0
:1017C000E104F10419F7DDCFFF90EF90DF90CF90A7
:1017D000BF90AF909F908F9008951F920F920FB679
:1017E0000F9211242F933F938F939F93AF93BF93A7
:1017F00080913D0390913E03A0913F03B09140033F
:101800003091ED0323E0230F2D3720F40196A11D25
:10181000B11D05C026E8230F0296A11DB11D20931E
:10182000ED0380933D0390933E03A0933F03B09359
:1018300040038091EE039091EF03A091F003B091EB
:10184000F1030196A11DB11D8093EE039093EF0368
:10185000A093F003B093F103BF91AF919F918F914B
:101860003F912F910F900FBE0F901F901895CF931F
:10187000DF93CDB7DEB7A1970FB6F894DEBF0FBEEA
:10188000CDBF789484B5826084BD84B5816084BD09
:1018900085B5826085BD85B5816085BD80916E000E
:1018A000816080936E00109281008091810082603F
:1018B000809381008091810081608093810080917C
:1018C00080008160809380008091B100846080936B
:1018D000B1008091B00081608093B00080917A0067
:1018E000846080937A0080917A00826080937A008D
:1018F00080917A00816080937A0080917A0080687C
:1019000080937A001092C10064EF71E080E090E073
:101910000E94B30BE0915103F091520382E0808367
:10192000E0914D03F0914E031082E0914F03F0914E
:10193000500380E1808310925903E0915503F091A8
:10194000560386E08083E0915303F0915403808135
:1019500080618083E0915303F0915403808188601B
:101960008083E0915303F0915403808180688083E9
:10197000E0915303F091540380818F7D80830E9416
:10198000240B892B39F46AE070E080E090E00E943B
:10199000B30BF5CF8FB7F89480903D0390903E0342
:1019A000A0903F03B09040038FBF62E370E080E0FF
:1019B00090E00E94B30B0E94240B892B29F06AE06F
:1019C00070E080E090E0F5CF8FB7F89440903D0351
:1019D00050903E0360903F03709040038FBF4818C3
:1019E00059086A087B0804E612E0E2E3EE2EF12CC7
:1019F00058018CE0A80EB11C4701801A910AC4015D
:101A0000800F911F0E941718D8018D938D01AA1580
:101A1000BB05A9F75701BCE0AB0EB11C7501EAEAA2
:101A2000AE16B10429F70DED12E0C5010E9417189A
:101A3000D8018D938D01BFEFAB1ABB0AE6ECAE1651
:101A4000B10499F786EC90E00E941718809310017A
:101A500087EC90E00E9417188093110161E08EE0FE
:101A60000E94770B61E08EE00E94480B61E08FE0FE
:101A70000E94770B61E08FE00E94480B61E080E1FB
:101A80000E94770B61E080E10E94480B60E08EE0ED
:101A90000E94480B64EF71E080E090E00E94B30B7D
:101AA00061E08EE00E94480B60E08FE00E94480BEE
:101AB00064EF71E080E090E00E94B30B61E08FE0A2
:101AC0000E94480B60E080E10E94480B64EF71E0E7
:101AD00080E090E00E94B30B61E080E10E94480B3F
:101AE00060E082E00E94770B60E082E00E94480B99
:101AF00065E070E08AEE93E00E9461036091E1028C
:101B00007091E20287EE93E00E94DE0264E070E0F2
:101B100087EE93E00E9461036091E1027091E2021E
:101B200087EE93E00E94DE0263E070E084EE93E0D3
:101B30000E9461036091ED027091EE0284EE93E0E9
:101B40000E94DE0268EC70E080E090E00E94B30B3F
:101B50006091E3027091E40287EE93E00E94DE025E
:101B60008AE291E00E94640968EE73E080E090E010
:101B70000E94B30B84E090E00E947E04809160029A
:101B800090916102A0916202B0916302809354022D
:101B900090935502A0935602B093570280915C0235
:101BA00090915D02A0915E02B0915F02809350021D
:101BB00090935102A0935202B09353028091580225
:101BC00090915902A0915A02B0915B0280934C020D
:101BD00090934D02A0934E02B0934F028FE391E099
:101BE0000E94440A609154027091550280915602FD
:101BF000909157020E948B0A85E491E00E94440A6A
:101C00006091500270915102809152029091530262
:101C10000E948B0A8DE491E00E94440A60914C027C
:101C200070914D0280914E0290914F020E948B0A5A
:101C30008DEC91E00E94640980E090ECAFE7B4E4A1
:101C40008093080190930901A0930A01B0930B01BE
:101C50008093040190930501A0930601B0930701BE
:101C60008093000190930101A0930201B0930301BE
:101C700064E670E080E090E00E94B30B82EB91E0BC
:101C800090930D0180930C01809169008360809393
:101C90006900E89A109216031092DC02F1ED4F16DB
:101CA000F7E05F066104710408F4CBC004E612E0BB
:101CB000D8011D921D921D921C921397F801148257
:101CC00015821682178218961D921D921D921C92E3
:101CD0001B9773E0E72EF12C6091E3027091E40210
:101CE00087EE93E00E94DE0268EC70E080E090E016
:101CF0000E94B30B84E090E00E947E04863491053C
:101D00002CF48091DC02882309F45CC364EF71E059
:101D100080E090E00E94B30B1092DC0284E090E03F
:101D20000E947E0420916002309161024091620223
:101D300050916302D8016D917D918D919C910E948B
:101D4000D918F801608371838283938320915C02A8
:101D500030915D0240915E0250915F026481758115
:101D6000868197810E94D918D80114966D937D932E
:101D70008D939C931797209158023091590240916E
:101D80005A0250915B0218966D917D918D919C91B4
:101D90001B970E94D918F801608771878287938703
:101DA0000E9492086091E1027091E20287EE93E056
:101DB0000E94DE0260E971E080E090E00E94B30BD7
:101DC000F1E0EF1AF10809F087CF20E030E040E4BD
:101DD00050E4F80160817181828193810E944519EC
:101DE000D8016D937D938D939C93139720E030E001
:101DF00040E450E414966D917D918D919C911797DC
:101E00000E944519F801648375838683978320E0D7
:101E100030E040E450E460857185828593850E94BE
:101E20004519D80118966D937D938D939C931B97BC
:101E3000045F1F4FB2E00C3D1B0709F039CF0E9431
:101E40002B07DD24D39480911603811155C2809114
:101E5000140390911503892B59F4E1E0F0E0F0931D
:101E60001503E09314036091DD027091DE0208C057
:101E700010921503109214036091DF027091E0023A
:101E80008AEE93E00E94DE0268E572E080E090E076
:101E90000E94B30B84E090E00E947E0499A388A383
:101EA0008091100190911101019709F04FC180912B
:101EB000600290916102A0916202B0916302898BED
:101EC0009A8BAB8BBC8B9C01AD01609164027091CD
:101ED000650280916602909167020E94D8186D8712
:101EE0007E878F87988B80915C0290915D02A09194
:101EF0005E02B0915F028D8B9E8BAF8BB88F9C0181
:101F0000AD01609168027091690280916A029091BE
:101F10006B020E94D8182B013C01809158029091CD
:101F20005902A0915A02B0915B02898F9A8FAB8FB0
:101F3000BC8F9C01AD0160916C0270916D0280912B
:101F40006E0290916F020E94D8184B015C012D85A2
:101F50003E854F855889CA01B9010E9456176D8781
:101F60007E878F87988BA3019201C301B2010E94E3
:101F700056179B01AC016D857E858F8598890E94DF
:101F8000D9182B013C01A5019401C501B4010E949F
:101F900056179B01AC01C301B2010E94D9180E94DF
:101FA0003F1AC62E7D8F8E8F9F8F64E6E62E62E0ED
:101FB000F62E212C312C01E010E029893A894B8939
:101FC0005C89D7011C966D917D918D919C911F9795
:101FD0000E94D8186D877E878F87988B2D893E89C0
:101FE0004F89588DF70160897189828993890E9490
:101FF000D8182B013C01298D3A8D4B8D5C8DD70172
:1020000054966D917D918D919C9157970E94D8180F
:102010004B015C012D853E854F855889CA01B90168
:102020000E9456176D877E878F87988BA301920138
:10203000C301B2010E9456179B01AC016D857E85DC
:102040008F8598890E94D9182B013C01A501940124
:10205000C501B4010E9456179B01AC01C301B20136
:102060000E94D9180E943F1A4B015C019B01AC01F0
:102070006C2D7D8D8E8D9F8D0E94341A18162CF438
:10208000C82C9D8EAE8EBF8E18010F5F1F4FBCE017
:10209000EB0EF11C0A30110509F08FCF29893A891E
:1020A0004B895C89CA01B9010E9456174B015C013A
:1020B000298D3A8D4B8D5C8DCA01B9010E9456174E
:1020C0009B01AC01C501B4010E94D9184B015C0110
:1020D0002D893E894F89588DCA01B9010E94561732
:1020E0009B01AC01C501B4010E94D9180E943F1A9E
:1020F00020E030E04CE852E40E94341A18167CF4D8
:10210000F101EE0FFF1FE550FD4F80819181019697
:10211000918380831092FA021092F902B6C08091E6
:10212000F9029091FA0201969093FA028093F902D3
:102130004F970CF4AAC0D09216031092FA02109294
:10214000F90284E591E00E9464099FC0E0906C026E
:10215000F0906D0200916E0210916F022091680262
:102160003091690240916A0250916B026091640261
:102170007091650280916602909167020E948D07BE
:10218000762E672E582E492E34E6A32E32E0B32E3B
:10219000212C312C88248394912CF501E488F58836
:1021A0000689178920893189428953896485758513
:1021B000868597850E948D077B018C01272D362D02
:1021C000452D542D0E94F01687FF05C07E2C6F2CE4
:1021D000502E412E1401FFEF8F1A9F0A8CE0A80E9B
:1021E000B11C9AE089169104C1F680905C0290902F
:1021F0005D02A0905E02B0905F0240905802509045
:10220000590260905A0270905B0260916002709176
:10221000610280916202909163029B01AC010E9475
:102220005617698B7A8B8B8B9C8BA3019201C30110
:10223000B2010E9456179B01AC0169897A898B898A
:102240009C890E94D9182B013C01A5019401C5016C
:10225000B4010E9456179B01AC01C301B2010E9458
:10226000D9180E943F1A20E030E04CE852E40E9466
:10227000341A181654F4F101EE0FFF1FE550FD4F0C
:1022800080819181019691838083A8A1B9A1A7340F
:10229000B1055CF083E691E00E94440AC1010E940E
:1022A000720A8DEC91E00E946409F101EE0FFF1FAC
:1022B000EB51FD4F6081718184EE93E00E94DE025C
:1022C00064E670E080E090E00E94B30B6091E10270
:1022D0007091E20287EE93E00E94DE0264EB70E010
:1022E00080E090E00E94B30B6091E3027091E40201
:1022F00087EE93E00E94DE028091DC02882309F4DD
:1023000056C0809116038D25809316031092DC022F
:10231000882309F44CC06091E1027091E20287EEDB
:1023200093E00E94DE026AE570E08AEE93E00E948C
:10233000DE023DC021114BC081E493E00E94DF002A
:1023400090911103992309F474C48E3309F468C47D
:1023500089831A820091E2031091E3030F5F1F4FFC
:10236000B8018EED93E00E94D101882399F020916D
:10237000DE033091DF038091E2039091E303BE011D
:102380006F5F7F4F820F931F0E94A91C1093E3037E
:102390000093E20380910F03909110030196803423
:1023A00091050CF036C49093100380930F0381E4E1
:1023B00093E00E94010120911303181619060CF4F2
:1023C000B9CF05C064E670E080E090E091CC2223B4
:1023D00009F41CC48091DE039091DF031092130373
:1023E0006FE272E00E94A6167C016FE272E080E06C
:1023F00090E00E94A6168C01B701CE0107960E94BC
:102400002302CE0107960E949A0AB801CE010196D6
:102410000E942302CE0101960E949A0A40E050E0F9
:102420006FE372E08EED93E00E94F80168E671E0E0
:10243000CE0107960E94FA0A8823B9F0CE010196D0
:102440000E94190B4B015C018AEE93E00E94DE02B0
:102450008BE691E00E94440AC4010E94720A8DEC4E
:1024600091E00E946409D092160368E871E0CE0101
:1024700007960E94FA0A8823B9F0CE0101960E94BD
:10248000190B4B015C0187EE93E00E94DE028BE8A2
:1024900091E00E94440AC4010E94720A8DEC91E00E
:1024A0000E946409D092160368EA71E0CE01079693
:1024B0000E94FA0A8823B9F0CE0101960E94190BF6
:1024C0004B015C0184EE93E00E94DE028BEA91E016
:1024D0000E94440AC4010E94720A8DEC91E00E949D
:1024E0006409D092160368EC71E0CE0107960E9451
:1024F000FA0A882391F0CE0101960E94190B161654
:1025000017061CF4CB010E947E048AEC91E00E9425
:1025100064090E949208D092160363E172E0CE0132
:1025200007960E94FA0A882349F08AEC91E00E94FB
:1025300064098091DC028D258093DC026FEC71E0F0
:10254000CE0107960E94FA0A882391F0CE010196E7
:102550000E94190B4B015C018AEC91E00E94640916
:10256000D09216039092DE028092DD020E942B0729
:1025700063ED71E0CE0107960E94FA0A882391F07C
:10258000CE0101960E94190B4B015C018AEC91E08F
:102590000E946409D09216039092E0028092DF02BA
:1025A0000E942B0767ED71E0CE0107960E94FA0AA0
:1025B000882391F0CE0101960E94190B4B015C011A
:1025C0008AEC91E00E946409D09216039092E20294
:1025D0008092E1020E942B076BED71E0CE0107961D
:1025E0000E94FA0A882391F0CE0101960E94190BED
:1025F0004B015C018AEC91E00E946409D0921603C1
:102600009092E4028092E3020E942B076FED71E04A
:10261000CE0107960E94FA0A882391F0CE01019616
:102620000E94190B4B015C018AEC91E00E94640945
:10263000D09216039092E6028092E5020E942B0748
:1026400063EE71E0CE0107960E94FA0A882391F0AA
:10265000CE0101960E94190B4B015C018AEC91E0BE
:102660000E946409D09216039092E8028092E702D9
:102670000E942B0767EE71E0CE0107960E94FA0ACE
:10268000882391F0CE0101960E94190B4B015C0149
:102690008AEC91E00E946409D09216039092EA02BB
:1026A0008092E9020E942B076BEE71E0CE01079643
:1026B0000E94FA0A882391F0CE0101960E94190B1C
:1026C0004B015C018AEC91E00E946409D0921603F0
:1026D0009092EC028092EB020E942B076FEE71E069
:1026E000CE0107960E94FA0A882391F0CE01019646
:1026F0000E94190B4B015C018AEC91E00E94640975
:10270000D09216039092EE028092ED020E942B0767
:1027100063EF71E0CE0107960E94FA0A882391F0D8
:10272000CE0101960E94190B4B015C018AEC91E0ED
:102730000E946409D09216039092F0028092EF02F8
:102740000E942B0767EF71E0CE0107960E94FA0AFC
:10275000882391F0CE0101960E94190B4B015C0178
:102760008AEC91E00E946409D09216039092F202E2
:102770008092F1020E942B076BEF71E0CE01079669
:102780000E94FA0A882391F0CE0101960E94190B4B
:102790004B015C018AEC91E00E946409D09216031F
:1027A0009092F4028092F3020E942B076FEF71E087
:1027B000CE0107960E94FA0A882391F0CE01019675
:1027C0000E94190B4B015C018AEC91E00E946409A4
:1027D000D09216039092F6028092F5020E942B0787
:1027E00063E072E0CE0107960E94FA0A882391F016
:1027F000CE0101960E94190B4B015C018AEC91E01D
:102800000E946409D09216039092F8028092F70217
:102810000E942B0763E372E0CE0107960E94FA0A3A
:1028200081110AC067E072E0CE0107960E94FA0AA1
:10283000882309F4AAC021C085EEE82E82E0F82E94
:1028400000E010E08CE092E00E94440AC8010E947F
:10285000720A82E491E00E94440AD7018D919D9111
:102860007D010E94720A8DEC91E00E9464090F5F65
:102870001F4F0A30110531F7D5CF8AEC91E00E9445
:102880006409D09216036091E3027091E40287EE2E
:1028900093E00E94DE0204E610E084E090E00E94F3
:1028A0007E0485E192E00E94440A8090600290904C
:1028B0006102A0906202B090630220E030E0A901C2
:1028C000C501B4010E94341A20E030E040E05FE32B
:1028D00087FD64C0C501B4010E94D9180E94B719D0
:1028E000CB010E94720A8FE292E00E94440A80901B
:1028F0005C0290905D02A0905E02B0905F0220E0CA
:1029000030E0A901C501B4010E94341A20E030E092
:1029100040E05FE387FD47C0C501B4010E94D918BC
:102920000E94B719CB010E94720A8FE292E00E94C6
:10293000440A8090580290905902A0905A02B09098
:102940005B0220E030E0A901C501B4010E94341A05
:1029500020E030E040E05FE387FD2AC0C501B4011C
:102960000E94D9180E94B719CB010E94720A8DECFF
:1029700091E00E94640968EC70E080E090E00E94C1
:10298000B30B0150110909F088CF62E172E0CE016A
:1029900007960E94FA0A882359F10FC0C501B401B5
:1029A0000E94D8189BCFC501B4010E94D818B8CF97
:1029B000C501B4010E94D818D5CF8AEC91E00E94DD
:1029C0006409D092160305EE12E0F801619171914D
:1029D0008F0184EE93E00E94DE0260ED77E080E0FC
:1029E00090E00E94B30B89EF92E08017910769F79E
:1029F0006CE172E0CE0107960E94FA0A8823D1F0BA
:102A0000CE0101960E94190B6130710539F4A1E0E5
:102A1000B0E0B0931101A093100106C0E2E0F0E035
:102A2000F0931101E09310018AEC91E00E94640997
:102A30000E942B0761E272E0CE0107960E94FA0A1B
:102A4000882309F4A4C004E612E0E12CF12C84E20E
:102A500092E00E94440AC7010E94720A8FE292E04B
:102A60000E94440A20E030E040E85EE3D8016D9126
:102A70007D918D919C910E9456174B015C0120E045
:102A800030E0A9010E94341A20E030E040E05FE32A
:102A900087FD05C0C501B4010E94D91804C0C50155
:102AA000B4010E94D8180E94B7190E94460A8FE20A
:102AB00092E00E94440A20E030E040E85EE3F80142
:102AC00064817581868197810E9456174B015C0154
:102AD00020E030E0A9010E94341A20E030E040E01C
:102AE0005FE387FD05C0C501B4010E94D91804C089
:102AF000C501B4010E94D8180E94B7190E94460A65
:102B00008FE292E00E94440A20E030E040E85EE379
:102B1000D80118966D917D918D919C911B970E9483
:102B200056174B015C0120E030E0A9010E94341AE5
:102B300020E030E040E05FE387FD05C0C501B4015F
:102B40000E94D91804C0C501B4010E94D8180E947F
:102B5000B7190E94460A8DEC91E00E946409BFEF0C
:102B6000EB1AFB0A045F1F4FEAE0EE16F10409F0CE
:102B70006ECF8CE292E00E94440A80911001909105
:102B800011010E94720A8DEC91E00E94640961E3D8
:102B900072E0CE0107960E94FA0A882379F18D81AE
:102BA0009E81892B21F0E981FA81309721F41092DE
:102BB0001203E2E1F3E08081873451F0823529F09D
:102BC000823451F460E080E105C060E08EE002C034
:102BD00060E08FE00E94480B68EE73E080E090E0D8
:102BE0000E94B30B61E08EE00E94480B61E08FE031
:102BF0000E94480B61E080E10E94480B89819A8124
:102C00000E94431B8F8198850E94431B0E94A8014C
:102C10001AC9EFE3F0E0F0931003E0930F03C7CB82
:102C2000109211031092100310920F03D09213030D
:102C3000BECB8C3309F0BBCBD0921103B8CBFC01D7
:102C4000909118039C30A0F481E0890F80931803C1
:102C50009083892F90E0FC01EE0FFF1F8E0F9F1FC6
:102C6000FC01E75EFC4F88EB9BE092838183089533
:102C70008FEF808308958091DE039091DF030C94A1
:102C8000431BE1E4F3E01382128288EE93E0A0E0BC
:102C9000B0E084839583A683B7838CE191E0918330
:102CA000808385EC90E09587848784EC90E097871B
:102CB000868780EC90E0918B808B81EC90E0938B09
:102CC000828B82EC90E0958B848B86EC90E0978BE6
:102CD000868B118E128E138E148E8AEE93E00E94D4
:102CE0001F1687EE93E00E941F1684EE93E00E9469
:102CF0001F166FE372E08EED93E00C9423021F9396
:102D0000FC0199278827BC01E89411911032E9F35E
:102D1000193010F01E30C8F31B3251F01D3249F447
:102D2000689406C00E94D216610F711D811D911D0D
:102D3000119110531A30B0F33EF490958095709530
:102D400061957F4F8F4F9F4F1F91089542EF53E042
:102D50000E94AB160895FA01A191B081009719F471
:102D60001097E1F0CD01DC01CD010D90002011F4B0
:102D7000C00113C0FB012191222319F02015D9F7BE
:102D8000F3CFFB012191201519F41E92119606C074
:102D90002223C1F70D900020A1F7D001FA01A193E1
:102DA000B0830895592F482F372F262F660F771F8E
:102DB000881F991F660F771F881F991F620F731F47
:102DC000841F951F660F771F881F991F0895911103
:102DD0000C94C317803219F089508550C8F70895B4
:102DE0000E94321708F481E00895E89409C097FB27
:102DF0003EF490958095709561957F4F8F4F9F4FD2
:102E00009923A9F0F92F96E9BB279395F695879515
:102E100077956795B795F111F8CFFAF4BB0F11F4D8
:102E200060FF1BC06F5F7F4F8F4F9F4F16C088237F
:102E300011F096E911C0772321F09EE8872F762FB5
:102E400005C0662371F096E8862F70E060E02AF0F6
:102E50009A95660F771F881FDAF7880F96958795E2
:102E600097F90895990F0008550FAA0BE0E8FEEFB7
:102E700016161706E807F907C0F012161306E4073E
:102E8000F50798F0621B730B840B950B39F40A2637
:102E900061F0232B242B252B21F408950A2609F415
:102EA000A140A6958FEF811D811D08950E9469178D
:102EB0000C94DD170E94CF1738F00E94D61720F02F
:102EC000952311F00C94C6170C94CC1711240C9474
:102ED00011180E94EE1770F3959FC1F3950F50E003
:102EE000551F629FF001729FBB27F00DB11D639FBC
:102EF000AA27F00DB11DAA1F649F6627B00DA11D62
:102F0000661F829F2227B00DA11D621F739FB00D07
:102F1000A11D621F839FA00D611D221F749F332777
:102F2000A00D611D231F849F600D211D822F762F10
:102F30006A2F11249F5750409AF0F1F088234AF0ED
:102F4000EE0FFF1FBB1F661F771F881F9150504059
:102F5000A9F79E3F510580F00C94C6170C941118E8
:102F60005F3FE4F3983ED4F3869577956795B795E0
:102F7000F795E7959F5FC1F7FE2B880F911D9695FA
:102F8000879597F9089599278827089597F99F6756
:102F900080E870E060E008959FEF80EC08950024E1
:102FA0000A941616170618060906089500240A94AE
:102FB00012161306140605060895092E0394000C34
:102FC00011F4882352F0BB0F40F4BF2B11F460FFC3
:102FD00004C06F5F7F4F8F4F9F4F089557FD9058EC
:102FE000440F551F59F05F3F71F04795880F97FBCD
:102FF000991F61F09F3F79F0879508951216130687
:103000001406551FF2CF4695F1DF08C016161706B5
:103010001806991FF1CF86957105610508940895EA
:10302000E894BB2766277727CB0197F90895F9998C
:10303000FECF92BD81BDF89A992780B50895262FBD
:10304000F999FECF1FBA92BD81BD20BD0FB6F8948D
:10305000FA9AF99A0FBE01960895052E97FB1EF471
:1030600000940E94441857FD07D00E94961807FC50
:1030700003D04EF40C94441850954095309521950A
:103080003F4F4F4F5F4F0895909580957095619594
:103090007F4F8F4F9F4F08950E94B818A59F900DA6
:1030A000B49F900DA49F800D911D11240895B7FF2A
:1030B0000C944C180E944C18821B930B08952F926D
:1030C0003F924F925F926F927F928F929F92AF92B8
:1030D000BF92CF92DF92EF92FF920F931F93CF9305
:1030E000DF93CDB7DEB7CA1BDB0B0FB6F894DEBF9C
:1030F0000FBECDBF09942A88398848885F846E84C2
:103100007D848C849B84AA84B984C884DF80EE800B
:10311000FD800C811B81AA81B981CE0FD11D0FB614
:10312000F894DEBF0FBECDBFED010895A1E21A2EC7
:10313000AA1BBB1BFD010DC0AA1FBB1FEE1FFF1F5B
:10314000A217B307E407F50720F0A21BB30BE40BAB
:10315000F50B661F771F881F991F1A9469F76095F2
:103160007095809590959B01AC01BD01CF010895AC
:10317000A29FB001B39FC001A39F700D811D1124B8
:10318000911DB29F700D811D1124911D08959F9373
:103190009F770E94ED190F90002042F49058A2EA08
:1031A0002AED3FE049E450E40E94F0180C94DD174A
:1031B0005058BB27AA270E94F0180C94DD170E94D4
:1031C000CF1738F00E94D61720F039F49F3F19F43A
:1031D00026F40C94CC170EF4E095E7FB0C94C6177C
:1031E000E92F0E94EE1758F3BA1762077307840796
:1031F000950720F079F4A6F50C9410180EF4E095DC
:103200000B2EBA2FA02D0B01B90190010C01CA01A0
:10321000A0011124FF27591B99F0593F50F4503E4B
:1032200068F11A16F040A22F232F342F4427585F3D
:10323000F3CF469537952795A795F0405395C9F755
:103240007EF41F16BA0B620B730B840BBAF091500D
:10325000A1F0FF0FBB1F661F771F881FC2F70EC0AC
:10326000BA0F621F731F841F48F48795779567957F
:10327000B795F7959E3F08F0B0CF9395880F08F06B
:103280009927EE0F9795879508950E9459190C94E8
:10329000DD170E94D61758F00E94CF1740F029F48E
:1032A0005F3F29F00C94C61751110C9411180C941F
:1032B000CC170E94EE1768F39923B1F3552391F3CD
:1032C000951B550BBB27AA2762177307840738F095
:1032D0009F5F5F4F220F331F441FAA1FA9F335D0F2
:1032E0000E2E3AF0E0E832D091505040E695001CA6
:1032F000CAF72BD0FE2F29D0660F771F881FBB1F60
:10330000261737074807AB07B0E809F0BB0B802D3D
:10331000BF01FF2793585F4F3AF09E3F510578F069
:103320000C94C6170C9411185F3FE4F3983ED4F345
:10333000869577956795B795F7959F5FC9F7880F3D
:10334000911D9695879597F90895E1E0660F771F8F
:10335000881FBB1F621773078407BA0720F0621B20
:10336000730B840BBA0BEE1F88F7E09508950E944B
:10337000BE196894B1110C94111808950E94F617A3
:1033800088F09F5798F0B92F9927B751B0F0E1F026
:10339000660F771F881F991F1AF0BA95C9F714C0D6
:1033A000B13091F00E941018B1E008950C941018FB
:1033B000672F782F8827B85F39F0B93FCCF386950F
:1033C00077956795B395D9F73EF49095809570956C
:1033D00061957F4F8F4F9F4F0895DF93CF931F933A
:1033E0000F938B01EC01E8E6F0E00E940D1A0E94B9
:1033F000DD179801AE018B01EC0160E070E080E820
:103400009FE30E94D8180E943F1A9801AE010F91C5
:103410001F91CF91DF910C946917DF93CF931F9386
:103420000F93FF92EF92DF927B018C01689406C0AC
:10343000DA2EEF010E946917FE01E894A59125910B
:10344000359145915591A6F3EF010E94F018FE01C8
:103450009701A801DA9469F7DF90EF90FF900F9140
:103460001F91CF91DF9108950E94321708F48FEFDA
:10347000089519F416F40C94CC170C94841A0E9435
:10348000F617B8F39923C9F3B6F39F57550B87FF87
:103490000E94921A0024A0E640EA900180585695B6
:1034A000979528F4805C660F771F881F20F02617F9
:1034B0003707480730F4621B730B840B202931292E
:1034C0004A2BA69517940794202531254A2758F7AB
:1034D000660F771F881F20F026173707480730F43C
:1034E000620B730B840B200D311D411DA09581F7DC
:1034F000B901842F9158880F9695879508950E9459
:103500003217880B990B08959F3F31F0915020F4AA
:10351000879577956795B795880F911D96958795AF
:1035200097F9089591505040660F771F881FD2F782
:103530000895991B79E004C0991F961708F0961B0F
:10354000881F7A95C9F780950895EE0FFF1F0590A3
:10355000F491E02D09940F931F93CF93DF93823062
:10356000910510F482E090E0E091F603F091F7030A
:1035700020E030E0A0E0B0E0309719F140815181C7
:103580000281138148175907C8F08417950769F419
:10359000109731F012960C93129713961C9327C034
:1035A0000093F6031093F70322C02115310519F09B
:1035B0004217530718F49A01BD01EF01DF01F8012A
:1035C000DBCF21153105F9F0281B390B24303105EB
:1035D00080F48A819B816115710521F0FB01938341
:1035E000828304C09093F7038093F603FE01329622
:1035F00044C0FE01E20FF31F8193919322503109E1
:10360000398328833AC02091F4033091F503232BAA
:1036100041F420911401309115013093F50320936A
:10362000F40320911201309113012115310541F469
:103630002DB73EB74091160150911701241B350B51
:10364000E091F403F091F503E217F307A0F42E1BC9
:103650003F0B2817390778F0AC014E5F5F4F2417F6
:10366000350748F04E0F5F1F5093F5034093F40366
:103670008193919302C0E0E0F0E0CF01DF91CF9120
:103680001F910F910895CF93DF93009709F481C0A4
:10369000FC01329713821282A091F603B091F703D6
:1036A000109781F420813181820F931F2091F403C0
:1036B0003091F5032817390751F5F093F503E0939E
:1036C000F40367C0ED0120E030E0CE17DF0740F4DF
:1036D0004A815B819E0141155105F1F0EA01F5CF68
:1036E000D383C28340815181840F951FC817D907A6
:1036F00059F488819981840F951F02969183808364
:103700008A819B81938382832115310529F4F0936B
:10371000F703E093F6033DC0E901FB83EA83499197
:103720005991C40FD51FEC17FD0761F48081918179
:10373000840F951F0296E901998388838281938182
:103740009B838A83E0E0F0E012968D919C91139721
:10375000009719F0FD01DC01F7CF8D919C91119735
:103760009D012E5F3F4F820F931F2091F4033091F4
:10377000F5032817390769F4309729F41092F703F5
:103780001092F60302C013821282B093F503A09345
:10379000F403DF91CF910895A0E0B0E0E2EDFBE10A
:1037A0000C946318EC01009721F4CB010E94AB1A32
:1037B000B4C0FC01E60FF71F9C0122503109E2174B
:1037C000F30708F4A8C0D9010D911C9111970617B1
:1037D0001707B0F00530110508F49BC0C801049725
:1037E0008617970708F495C002501109061B170B9E
:1037F000019311936D937C93CF010E94431B89C069
:103800005B01A01AB10A4C01800E911EA091F60333
:10381000B091F703612C712CE12CF12C109709F475
:1038200046C08D919C911197A815B905B1F56C0111
:1038300042E0C40ED11CCA14DB0478F14C018A1892
:103840009B08640142E0C40ED11C1296BC901297F2
:103850001396AC91B5E0CB16D10440F0B282A383AD
:1038600091828082D9016D937C9309C00E5F1F4FB6
:10387000800F911FF90191838083EB2DFA2FE114C2
:10388000F10431F0D7011396FC93EE93129741C0E7
:10389000F093F703E093F6033CC06816790608F44A
:1038A0003C017D0112960D90BC91A02DB7CF809167
:1038B000F4039091F50388169906E1F466167706ED
:1038C000C8F48091120190911301009741F48DB7D3
:1038D0009EB74091160150911701841B950BE81774
:1038E000F907C8F4F093F503E093F403F901718349
:1038F00060830FC0CB010E94AB1A7C01009759F086
:10390000A801BE010E94971CCE010E94431BC70163
:1039100004C0CE0102C080E090E0CDB7DEB7EEE09B
:103920000C947F1881E090E0F8940C94B01CFB019B
:10393000DC0102C001900D9241505040D8F708952B
:10394000FB01DC018D91019080190110D9F3990BD5
:103950000895FB01DC0101900D920020E1F708952C
:1039600010E0C6E7D0E004C0FE010E94A51A21962F
:0A397000C737D107C9F7F894FFCF5D
:10397A0000C07F4400C07F4400C07F44A100A10072
:10398A0001000000F8038000000000003901A200D5
:10399A00D00086010101DF00F3003C436865636BD8
:1039AA00696E6720626C61636B706F696E74005236
:1039BA0065643A2000477265656E3A2000426C756C
:1039CA00653A20003C4F7574206F66206265616419
:1039DA00733E003C63693A004731003C5365747496
:1039EA00696E6720736572766F3120746F20706F0D
:1039FA00736974696F6E20004732003C53657474B2
:103A0A00696E6720736572766F3220746F20706FEB
:103A1A00736974696F6E20004733003C5365747490
:103A2A00696E6720736572766F3320746F20706FCA
:103A3A00736974696F6E200052003C4F4B3E00530D
:103A4A003130005331310053323000533231005398
:103A5A00333000533331005333320053333300537E
:103A6A00333400533335005333360053333700535E
:103A7A00333800533339005452494D003C706F7348
:103A8A0020005450003C5472696D3A004D4F444531
:103A9A00004349003C636F6C6F723A003C434D3AF5
:103AAA00004C4544003C436F6C6F723A000D0A00AB
:0C3ABA006E616E00696E66006F7666003B
:107800000C94343C0C94513C0C94513C0C94513CE1
:107810000C94513C0C94513C0C94513C0C94513CB4
:107820000C94513C0C94513C0C94513C0C94513CA4
:107830000C94513C0C94513C0C94513C0C94513C94
:107840000C94513C0C94513C0C94513C0C94513C84
:107850000C94513C0C94513C0C94513C0C94513C74
:107860000C94513C0C94513C11241FBECFEFD8E036
:10787000DEBFCDBF11E0A0E0B1E0ECE9FFE702C060
:1078800005900D92A230B107D9F712E0A2E0B1E065
:1078900001C01D92AD30B107E1F70E942D3D0C945F
:1078A000CC3F0C94003C982F959595959595959582
:1078B000905D8F708A307CF0282F295A8091C0000B
:1078C00085FFFCCF9093C6008091C00085FFFCCF60
:1078D0002093C6000895282F205DF0CF982F809127
:1078E000C00085FFFCCF9093C6000895EF92FF92F1
:1078F0000F931F93EE24FF2487018091C00087FD22
:1079000017C00894E11CF11C011D111D81E4E8164B
:1079100082E4F8068FE0080780E0180770F3E09132
:107920000401F091050109958091C00087FFE9CF1E
:107930008091C6001F910F91FF90EF9008950E94D3
:10794000763C982F8091C00085FFFCCF9093C600B5
:1079500091362CF490330CF09053892F089597555D
:10796000892F08951F930E949F3C182F0E949F3CCF
:107970001295107F810F1F9108951F93182F882350
:1079800021F00E94763C1150E1F71F9108951F935A
:10799000182F0E94763C803249F0809103018F5F5E
:1079A000809303018530C1F01F9108958091C0003C
:1079B00085FFFCCF84E18093C6008091C00085FFE5
:1079C000FCCF1093C6008091C00085FFFCCF80E102
:1079D0008093C6001F910895E0910401F091050184
:1079E00009951F9108950E94763C803241F0809164
:1079F00003018F5F80930301853081F008958091AA
:107A0000C00085FFFCCF84E18093C6008091C00058
:107A100085FFFCCF80E18093C6000895E0910401CA
:107A2000F09105010995089540E951E08823A1F0FE
:107A30002D9A28EE33E0FA013197F1F721503040CA
:107A4000D1F72D9828EE33E0FA013197F1F7215064
:107A50003040D1F7815061F708953F924F925F9285
:107A60006F927F928F929F92AF92BF92CF92DF924E
:107A7000EF92FF920F931F93CF93DF93000080E16B
:107A80008093C4001092C50088E18093C10086E015
:107A90008093C2005098589A259A81E00E94143D24
:107AA00024E1F22E9EE1E92E85E9D82E0FE0C02ECA
:107AB00010E1B12EAA24A394B1E49B2EA6E58A2E50
:107AC000F2E57F2EE0E26E2E79E4572E63E5462E36
:107AD00050E5352E0E94763C8033B1F18133B9F107
:107AE000803409F46FC0813409F476C0823409F41B
:107AF00085C0853409F488C0803531F1823521F1A3
:107B0000813511F1853509F485C0863509F48DC0BC
:107B1000843609F496C0843709F403C1853709F423
:107B200072C1863709F466C0809103018F5F80932C
:107B30000301853079F6E0910401F0910501099582
:107B40000E94763C803351F60E94F33CC3CF0E94E2
:107B5000763C803249F78091C00085FFFCCFF092DF
:107B6000C6008091C00085FFFCCF9092C600809136
:107B7000C00085FFFCCF8092C6008091C00085FFC9
:107B8000FCCF7092C6008091C00085FFFCCF609250
:107B9000C6008091C00085FFFCCF5092C600809146
:107BA000C00085FFFCCF4092C6008091C00085FFD9
:107BB000FCCF3092C6008091C00085FFFCCFB09210
:107BC000C60088CF0E94763C863808F4BDCF0E945C
:107BD000763C0E94F33C7ECF0E94763C803809F4CC
:107BE0009CC0813809F40BC1823809F43CC1883942
:107BF00009F48FC080E00E94C73C6CCF84E10E94F2
:107C0000BD3C0E94F33C66CF85E00E94BD3C0E94D3
:107C1000F33C60CF0E94763C809306010E94763C44
:107C2000809307010E94F33C55CF0E94763C80333D
:107C300009F41DC183E00E94BD3C80E00E94C73C66
:107C400049CF0E94763C809309020E94763C809343
:107C5000080280910C028E7F80930C020E94763C79
:107C6000853409F415C18091080290910902892B8D
:107C700089F000E010E00E94763CF801E85FFE4FDA
:107C800080830F5F1F4F80910802909109020817AF
:107C9000190788F30E94763C803209F045CF809125
:107CA0000C0280FF01C16091060170910701660F0F
:107CB000771F7093070160930601A0910802B091AD
:107CC00009021097C9F0E8E0F1E09B01AD014E0F09
:107CD0005F1FF999FECF32BD21BD819180BDFA9A17
:107CE000F99A2F5F3F4FE417F50799F76A0F7B1F4B
:107CF00070930701609306018091C00085FFFCCF5F
:107D0000F092C6008091C00085FFFCCFB092C60003
:107D1000E1CE83E00E94C73CDDCE82E00E94C73CFA
:107D2000D9CE0E94763C809309020E94763C8093D3
:107D300008028091060190910701880F991F909386
:107D40000701809306010E94763C853409F4A6C0A1
:107D500080910C028E7F80930C020E94763C8032D0
:107D600009F0B8CE8091C00085FFFCCFF092C6002C
:107D7000609108027091090261157105B9F140E046
:107D800050E080910C02A82FA170B82FB27011C0E2
:107D9000BB2309F45CC0E0910601F0910701319624
:107DA000F0930701E09306014F5F5F4F46175707B7
:107DB000E8F4AA2369F3F999FECF209106013091E6
:107DC000070132BD21BDF89A90B58091C00085FFB2
:107DD000FCCF9093C6002F5F3F4F30930701209355
:107DE00006014F5F5F4F4617570718F38091C00099
:107DF00085FDE5CE8091C00085FFF8CFE0CE81E023
:107E00000E94C73C67CE0E94763C803209F08CCE3F
:107E10008091C00085FFFCCFF092C6008091C00029
:107E200085FFFCCFE092C6008091C00085FFFCCFAB
:107E3000D092C6008091C00085FFFCCFC092C600E2
:107E40008091C00085FFFCCFB092C60043CEE09188
:107E50000601F091070194918091C00085FFFCCF4D
:107E60009093C6009CCF80E10E94C73C33CE0E9415
:107E7000763C0E94763C182F0E94763C112309F430
:107E800083C0113009F484C08FE00E94C73C22CE29
:107E900080910C02816080930C02E5CE80910C02EF
:107EA000816080930C0259CF809107018823880F4D
:107EB000880B8A2180930B02809106019091070123
:107EC000880F991F90930701809306018091080203
:107ED00080FF09C080910802909109020196909359
:107EE000090280930802F894F999FECF1127E091D6
:107EF0000601F0910701C8E0D1E08091080290915D
:107F00000902103091F40091570001700130D9F34B
:107F100003E000935700E89500915700017001308D
:107F2000D9F301E100935700E89509901990009169
:107F3000570001700130D9F301E000935700E89534
:107F40001395103498F011270091570001700130FB
:107F5000D9F305E000935700E895009157000170B0
:107F60000130D9F301E100935700E895329602976A
:107F700009F0C7CF103011F00296E5CF112480919F
:107F8000C00085FFB9CEBCCE8EE10E94C73CA2CD19
:0C7F900085E90E94C73C9ECDF894FFCF0D
:027F9C00800063
:040000030000780081
:00000001FF
